:020000040000FA
:0400000027EF00F0F6
:100008004F82FACF0DF0FBCF0EF0D9CF0FF0DACF39
:1000180010F0F2AA12EF00F014EF00F01DEF00F05C
:10002800F2A419EF00F01BEF00F01DEF00F0B3ECA5
:1000380012F010C0DAFF0FC0D9FF0EC0FBFF0DC0D1
:10004800FAFF4F921100F4EF10F0000E0001C26F9A
:10005800000EC36F000EC46F000EC56F39EC13F0AD
:100068008A88000E126E000E116E9BEC13F0F2944B
:10007800F2A441EF00F043EF00F03CEF00F0E60E91
:10008800116E1C0E126EA0EC13F0F28EF28C070E9D
:100098000001A36FFF0EA46FFEEC12F01B0E00010F
:1000A800A36FFF0EA46FFEEC12F0560E0001A36FB3
:1000B800FF0EA46FFEEC12F0E70E0001A36FFF0E17
:1000C800A46FFEEC12F088EC13F00009D8B46FEFBF
:1000D80000F071EF00F067EF00F012EC13F0000190
:1000E800BF6FE8EF04F08E0EA36FFB0EA46FFEEC5B
:1000F80012F0430E0001A36FFF0EA46FFEEC12F086
:10010800EC0E0001A36FFF0EA46FC4C0A5F0C5C01C
:10011800A6F0A76BA86BFEEC12F0FD0E0001A36F12
:10012800FF0EA46FFEEC12F0EC0E0001A36FFF0EA1
:10013800A46FFF0EC215A56FFF0EC315A66F000EA4
:10014800C415A76F000EC515A86FFEEC12F0960E29
:100158000001A36FFF0EA46FFEEC12F0900E0001D9
:10016800A36FFB0EA46FFEEC12F0A80E0001A36FA4
:10017800FF0EA46FFEEC12F0D50E0001A36FFF0E68
:10018800A46FFEEC12F0F20E0001A36FFE0EA46F36
:10019800FEEC12F0820E0001A36FFE0EA46FFEECBF
:1001A80012F0900E0001A36FFB0EA46FFEEC12F08C
:1001B800520E0001A36FFE0EA46FFEEC12F0900E1B
:1001C8000001A36FFB0EA46FFEEC12F0020E0001FB
:1001D800A36FFD0EA46FFEEC12F0830E0001A36F57
:1001E800FC0EA46F020EA66F000EA56FFEEC12F0B7
:1001F800570E0001A36FFB0EA46F020EA66F000E30
:10020800A56FFEEC12F0900E0001A36FFB0EA46F19
:10021800FEEC12F0C40E0001A36FFB0EA46FFEECFF
:1002280012F0D80E0001A36FFC0EA46FF2C0A5F067
:10023800F3C0A6F0FEEC12F08E0E0001A36FFD0EC7
:10024800A46FFEEC12F0900E0001A36FFB0EA46FDA
:10025800FEEC12F067EF00F0CD0EA36FFF0EA46F57
:10026800FEEC12F067EF00F0000EC16F000EC06FD9
:10027800F30EA36FFF0EA46FFEEC12F00001C04B4B
:10028800C12BC15109E1280EC05DD8A04EEF01F085
:1002980050EF01F03CEF01F0FF0067EF00F0000EB7
:1002A800C16F000EC06FF30EA36FFF0EA46FFEECBC
:1002B80012F00001C04BC12BC15109E1280EC05DED
:1002C800D8A069EF01F06BEF01F057EF01F067EF8D
:1002D80000F0AE0EA36FFC0EA46FFEEC12F0CB0E76
:1002E8000001A36FFD0EA46FFEEC12F0C0EC13F03A
:1002F800000E41EC0FF088EC13F00009D8B487EF3A
:1003080001F089EF01F07FEF01F012EC13F0010E1C
:10031800FEEC0CF067EF00F0610EBF19D8A497EF60
:1003280001F099EF01F0A9EF01F0000EC25F020E93
:10033800C35B000EC45B000EC55BB70EA36FFF0E58
:10034800A46FFEEC12F0B7EF01F0000EC227020E08
:10035800C323000EC423000EC523C20EA36FFF0ED5
:10036800A46FFEEC12F0430E0001A36FFF0EA46F02
:10037800FEEC12F0EC0E0001A36FFF0EA46FC4C0D8
:10038800A5F0C5C0A6F0A76BA86BFEEC12F0FD0E99
:100398000001A36FFF0EA46FFEEC12F0EC0E00013B
:1003A800A36FFF0EA46FFF0EC215A56FFF0EC31536
:1003B800A66F000EC415A76F000EC515A86FFEEC3A
:1003C80012F0960E0001A36FFF0EA46FFEEC12F060
:1003D80067EF00F0C2C012F0C3C013F0C4C014F03D
:1003E800C5C015F0F40E166E020E176E97EC0FF0DE
:1003F8008A0E0001A36FFF0EA46FFEEC12F0790EB7
:100408000001A36FFF0EA46FFEEC12F0EC0E0001CA
:10041800A36FFF0EA46FC4C0A5F0C5C0A6F0A76B5C
:10042800A86BFEEC12F0FD0E0001A36FFF0EA46F87
:10043800FEEC12F0EC0E0001A36FFF0EA46FFF0E8E
:10044800C215A56FFF0EC315A66F000EC415A76FC2
:10045800000EC515A86FFEEC12F0960E0001A36FF2
:10046800FF0EA46FFEEC12F0F40E0001AD6F020E49
:10047800AE6F77EC0AF067EF00F0000EBB6F000E6E
:10048800BE6F000EBD6FDCEF02F0000E0001C16F01
:10049800000EC06FED0EBD25F66EF90EBE21F76E8B
:1004A800F86A000EF822F40EC025D96E020EC1219A
:1004B800DA6E0800F5CFDFFF1A0EBD19BE11D8A4F9
:1004C80068EF02F06AEF02F070EF02F0000EBE6F04
:1004D800000EBD6F72EF02F0BD4BBE2BC04BC12B9F
:1004E800020EC15DD8A07BEF02F07DEF02F04EEF67
:1004F80002F0C2C012F0C3C013F0C4C014F0C5C0EB
:1005080015F0F40E166E020E176E7BEC10F028EC48
:1005180012F00001BA6FBA29D8B495EF02F097EF3C
:1005280002F08BEF02F0990EA36FFF0EA46FFEECA2
:1005380012F0790E0001A36FFF0EA46FFEEC12F00B
:10054800EC0E0001A36FFF0EA46FC4C0A5F0C5C0D8
:10055800A6F0A76BA86BFEEC12F0FD0E0001A36FCE
:10056800FF0EA46FFEEC12F0EC0E0001A36FFF0E5D
:10057800A46FFF0EC215A56FFF0EC315A66F000E60
:10058800C415A76F000EC515A86FFEEC12F0960EE5
:100598000001A36FFF0EA46FFEEC12F0000E000125
:1005A800C227020EC323000EC423000EC523BB2B93
:1005B80088EC13F00009D8B4E4EF02F0E6EF02F09B
:1005C80049EF02F012EC13F0570E0001A36FFC0E76
:1005D800A46FBBC0A5F0A66BFEEC12F067EF00F0AD
:1005E800A00EF227000EF32367EF00F0E10EF25D94
:1005F800010EF359D8B003EF03F005EF03F00BEF4A
:1006080003F0010EF36F400EF26F67EF00F0A00EDB
:10061800F25F000EF35B67EF00F00B0EA36FFA0EAC
:10062800A46FFEEC12F088EC13F00009D8B41FEFA9
:1006380003F021EF03F017EF03F012EC13F0010EB3
:100648004C6EFAEF03F00001D151D8B42EEF03F04D
:1006580030EF03F092EF03F0C2C012F0C3C013F002
:10066800C4C014F0C5C015F0F40E166E020E176E55
:100678007BEC10F028EC12F00001BA6FBA29D8B45C
:1006880048EF03F04AEF03F03EEF03F0990EA36F33
:10069800FF0EA46FFEEC12F0790E0001A36FFF0E9F
:1006A800A46FFEEC12F0EC0E0001A36FFF0EA46F16
:1006B800C4C0A5F0C5C0A6F0A76BA86BFEEC12F0ED
:1006C800FD0E0001A36FFF0EA46FFEEC12F0EC0EFE
:1006D8000001A36FFF0EA46FFF0EC215A56FFF0EDA
:1006E800C315A66F000EC415A76F000EC515A86F19
:1006F800FEEC12F0960E0001A36FFF0EA46FFEEC45
:1007080012F0000E0001C227020EC323000EC423FC
:10071800000EC523000ED16FFAEF03F0D051D8B404
:1007280098EF03F09AEF03F0FAEF03F0C2C012F06B
:10073800C3C013F0C4C014F0C5C015F0F40E166E93
:10074800000E176E7BEC10F028EC12F00001BA6F67
:10075800BA29D8B4B2EF03F0B4EF03F0A8EF03F06E
:10076800990EA36FFF0EA46FFEEC12F0790E000134
:10077800A36FFF0EA46FFEEC12F0EC0E0001A36F46
:10078800FF0EA46FC4C0A5F0C5C0A6F0A76BA86BE8
:10079800FEEC12F0FD0E0001A36FFF0EA46FFEEC3D
:1007A80012F0EC0E0001A36FFF0EA46FFF0EC2152E
:1007B800A56FFF0EC315A66F000EC415A76F000E18
:1007C800C515A86FFEEC12F0960E0001A36FFF0E80
:1007D800A46FFEEC12F0000E0001C227020EC32324
:1007E800000EC423000EC523000ED06F88EC13F052
:1007F8000009D8B402EF04F004EF04F027EF03F087
:1008080012EC13F0000E4C6E67EF00F0000EBC6F98
:100818001E0EA36FFB0EA46FFEEC12F0A00E0001DB
:10082800A36FFA0EA46FFEEC12F0960E0001A36FF0
:10083800FF0EA46FFEEC12F0E40E0001A36FFA0E97
:10084800A46FFEEC12F06D0E0001A36FFD0EA46FF5
:10085800FEEC12F0C70E0001A36FFE0EA46FFEECB3
:1008680012F0F60E0001A36FFB0EA46FFEEC12F05F
:10087800590E0001A36FFA0EA46FFEEC12F02F0EB2
:100888000001A36FFF0EA46FFEEC12F0390E0001F9
:10089800A36FFE0EA46FFEEC12F012EC13F088ECBE
:1008A80013F00009D8B45BEF04F05DEF04F053EFE8
:1008B80004F012EC13F092EF04F0C2C012F0C3C0BF
:1008C80013F0C4C014F0C5C015F0F40E166E020E75
:1008D800176E97EC0FF0000E0001C16F000EC06F8D
:1008E800E20EA36FFF0EA46FF40EC025D96E020EA0
:1008F800C121DA6EDF50B76FB751A56FA66BFEEC5A
:1009080012F00001C04BC12B020EC15DD8A08FEFC1
:1009180004F091EF04F074EF04F0BC2B88EC13F0B2
:100928000009D8B49AEF04F09CEF04F061EF04F0EA
:100938004A0E0001A36FFD0EA46FBCC0A5F0A66B04
:10094800000EA86F040EA76FFEEC12F0280E00012F
:10095800A36FFC0EA46FFEEC12F0960E0001A36FBD
:10096800FF0EA46FFEEC12F0E40E0001A36FFA0E66
:10097800A46FFEEC12F06D0E0001A36FFD0EA46FC4
:10098800FEEC12F0C70E0001A36FFE0EA46FFEEC82
:1009980012F06A0E0001A36FFE0EA46FFEEC12F0B7
:1009A8002F0E0001A36FFF0EA46FFEEC12F067EF8D
:1009B80000F0680EA36FFF0EA46FBFC0A5F0A66B72
:1009C800FEEC12F067EF00F0BF51B76FB86BB8518B
:1009D800000AD8B4F2EF04F0DDEF04F0B7512B0AA7
:1009E800D8B4F4EF02F0060AD8B4FAEF02F01C0A01
:1009F800D8B441EF02F00E0AD8B477EF00F07E0ABF
:100A0800D8B490EF01F0160AD8B411EF03F00D0A2C
:100A1800D8B438EF01F03B0AD8B490EF01F0080AD7
:100A2800D8B46DEF01F0060AD8B430EF01F01D0A12
:100A3800D8B4EEEF01F0010AD8B40AEF04F0090ABD
:100A4800D8B453EF01F0DDEF04F027EF00F07EC0DB
:100A5800D9FF7FC0DAFFDECFF6FFDDCFF7FFF86AF8
:100A68000800F550250AD8A43CEF05F03EEF05F044
:100A78007CEF07F07EC0D9FF7FC0DAFFDE2A000EC8
:100A8800DD22000E416E000E406E40C044F041C0B1
:100A980045F042684368000E0001976F000E966F9C
:100AA8009DEF05F044807EC0D9FF7FC0DAFFDE2AC3
:100AB800000EDD229DEF05F0448257EF05F04484D7
:100AC80057EF05F0448657EF05F0448857EF05F0D7
:100AD800000E976F010E966F9DEF05F07EC0D9FF4F
:100AE8007FC0DAFFDECFF6FFDDCFF7FFF86A080038
:100AF800F550826F836B8351000AD8B486EF05F0F6
:100B08006CEF05F08251200AD8B466EF05F0030AAD
:100B1800D8B469EF05F0080AD8B463EF05F0060AFF
:100B2800D8B456EF05F01D0AD8B460EF05F06CEFA5
:100B380005F096519711D8B4A4EF05F0A6EF05F08B
:100B480072EF05F044A0ABEF05F0ADEF05F0AEEFA6
:100B580005F044927EC0D9FF7FC0DAFFDECFF6FFF2
:100B6800DDCFF7FFF86A0800F5502A0AD8A4BFEFCE
:100B780005F0C1EF05F0EAEF05F07EC0D9FF7FC0B0
:100B8800DAFFDE2A000EDD2280C0D9FF81C0DAFF3D
:100B9800DFCF82F0020EDE26DFCF83F0000EDD22EB
:100BA80082C0D9FF83C0DAFFDECF40F0DDCF41F04D
:100BB80041BEE3EF05F0E1EF05F02FEF06F04480CA
:100BC800406C411ED8B0412A2FEF06F07EC0D9FFF5
:100BD8007FC0DAFFDECF18F0DDCF19F06DEC0BF037
:100BE80018C040F019C041F001EF06F07EC0D9FFEF
:100BF8007FC0DAFFDE2A000EDD22D00E0001826FF0
:100C0800FF0E836F7EC0D9FF7FC0DAFFDECFF6FF0D
:100C1800DDCFF7FFF86A0800F550846F856B8251C5
:100C280084278351852385510AE10A0E845DD8A063
:100C380020EF06F023EF06F0010E24EF06F0000E79
:100C4800986F996B98519911D8A42DEF06F02FEF52
:100C580006F0FAEF05F07EC0D9FF7FC0DAFFDECFDD
:100C6800F6FFDDCFF7FFF86A0800F550630AD8A44D
:100C780040EF06F042EF06F069EF06F07EC0D9FFBC
:100C88007FC0DAFFDE2A000EDD2280C0D9FF81C0D6
:100C9800DAFFDFCF82F0020EDE26DFCF83F0000E10
:100CA800DD2282C0D9FF83C0DAFFDF509A6F7CC093
:100CB8002EF07DC02FF09AC030F053EC11F02EC00A
:100CC8007CF02FC07DF098EF07F07EC0D9FF7FC081
:100CD800DAFFDECFF6FFDDCFF7FFF86A0800F55040
:100CE800640AD8B47AEF06F07CEF06F08FEF06F0CE
:100CF8007EC0D9FF7FC0DAFFDECFF6FFDDCFF7FF7A
:100D0800F86A0800F550690AD8A48DEF06F08FEF4D
:100D180006F0CFEF06F07EC0D9FF7FC0DAFFDE2AEB
:100D2800000EDD2280C0D9FF81C0DAFFDFCF82F05C
:100D3800020EDE26DFCF83F0000EDD2282C0D9FF4F
:100D480083C0DAFFDECF86F0DDCF87F0000E87BFE5
:100D5800FF0E886F896F8A6F8B6F8C6F8D6F7CC069
:100D68002EF07DC02FF086C030F087C031F088C0EB
:100D780032F089C033F08AC034F08BC035F08CC0B3
:100D880036F08DC037F099EC07F02EC07CF02FC0FC
:100D98007DF098EF07F07EC0D9FF7FC0DAFFDECF85
:100DA800F6FFDDCFF7FFF86A0800F550780AD8B4E7
:100DB800E0EF06F0E2EF06F0F5EF06F07EC0D9FFAF
:100DC8007FC0DAFFDECFF6FFDDCFF7FFF86A080055
:100DD800F550580AD8A4F3EF06F0F5EF06F044EF03
:100DE80007F07EC0D9FF7FC0DAFFDECFF6FFDDCF88
:100DF800F7FFF86A0800F5CF9AF07EC0D9FF7FC0E8
:100E0800DAFFDE2A000EDD2280C0D9FF81C0DAFFBA
:100E1800DFCF82F0020EDE26DFCF83F0000EDD2268
:100E280082C0D9FF83C0DAFFDECF84F0DDCF85F042
:100E380084C08EF085C08FF0906B916B926B936B32
:100E4800946B956B7CC02EF07DC02FF08EC030F077
:100E58008FC031F090C032F091C033F092C034F0BE
:100E680093C035F094C036F095C037F09AC038F08A
:100E78000AEC09F02EC07CF02FC07DF098EF07F047
:100E88007EC0D9FF7FC0DAFFDECFF6FFDDCFF7FFE8
:100E9800F86A0800F550250AD8A455EF07F057EF6F
:100EA80007F06FEF07F07EC0D9FF7FC0DAFFDE2AB8
:100EB800000EDD22000E146E250E136E7CC015F098
:100EC8007DC016F030EC10F0000E00017D6F010EB1
:100ED8007C6F98EF07F07EC0D9FF7FC0DAFFDE2A6B
:100EE800000EDD22000E7D6F000E7C6F98EF07F07C
:100EF8007EC0D9FF7FC0DAFFDECFF6FFDDCFF7FF78
:100F0800F86A0800F550136E146A7CC015F07DC0AD
:100F180016F030EC10F07EC0D9FF7FC0DAFFDE2A71
:100F2800000EDD2268EF07F0120030C068F031C013
:100F380069F032C06AF033C06BF034C06CF035C071
:100F48006DF036C06EF037C06FF000016FBFAFEFC5
:100F580007F0B2EF07F0010EB3EF07F0000E666F6F
:100F6800676B66516711D8B4BCEF07F0BEEF07F0A6
:100F7800CEEF07F06F1F6E1F6D1F6C1F6B1F6A1F70
:100F8800691F686D000E69236A236B236C236D2328
:100F98006E236F2343BED3EF07F0D5EF07F0D6EFEC
:100FA80007F0449243BEE3EF07F0435006E14204E2
:100FB800D8B0E1EF07F0E3EF07F0E9EF07F0000E34
:100FC800636F010E626FEDEF07F042C062F043C03D
:100FD80063F040C064F041C065F066516711D8A461
:100FE800F8EF07F0FAEF07F001EF08F044A4FFEF7D
:100FF80007F001EF08F004EF08F06407D8A06507D0
:10100800000E716F1F0E706F000EF16F89EF08F000
:101018007007D8A07107D20E7025D96E000E712105
:10102800DA6E68C011F069C012F06AC013F06BC0C4
:1010380014F06CC015F06DC016F06EC017F06FC0DC
:1010480018F00A0E196E000E1A6E000E1B6E000EB6
:101058001C6E000E1D6E000E1E6E000E1F6E000E22
:10106800206EC1EC0DF011C038F012C039F013C079
:101078003AF014C03BF015C03CF016C03DF017C064
:101088003EF018C03FF038C023F03AC024F0CBEC53
:1010980011F02350300FDF6E00016207D8A06307FC
:1010A8006407D8A0650768C011F069C012F06AC06B
:1010B80013F06BC014F06CC015F06DC016F06EC064
:1010C80017F06FC018F00A0E196E000E1A6E000E97
:1010D8001B6E000E1C6E000E1D6E000E1E6E000EA6
:1010E8001F6E000E206E3AEC0CF011C068F012C0B2
:1010F80069F013C06AF014C06BF015C06CF016C02C
:101108006DF017C06EF018C06FF0000171BF95EF59
:1011180008F0715108E17005D8A095EF08F097EF35
:1011280008F0C7EF08F0685169116A116B116C116A
:101138006D116E116F11D8A4A4EF08F0A6EF08F096
:101148000CEF08F063BFB3EF08F0635106E16205E6
:10115800D8B0B1EF08F0B3EF08F00CEF08F065BFB6
:10116800BEEF08F0655108E16405D8A0BEEF08F0AD
:10117800C0EF08F0C7EF08F044B2C5EF08F0C7EFBA
:1011880008F00CEF08F066516711D8A4CEEF08F00C
:10119800D0EF08F0D7EF08F044A4D5EF08F0D7EF68
:1011A80008F0F5EF08F07007D8A0710766516711CD
:1011B800D8A4E1EF08F0E3EF08F0E9EF08F0000E3B
:1011C800616F2B0E606FEDEF08F0000E616F2D0E52
:1011D800606FD20E7025D96E000E7121DA6E60C074
:1011E800DFFF2EC023F02FC024F0D20E7025256E0D
:1011F800000E7121266E64C027F065C028F0E0EC6F
:101208000EF023C02EF024C02FF0120043BE0FEFC3
:1012180009F011EF09F012EF09F0449243BE1FEFF5
:1012280009F0435006E14204D8B01DEF09F01FEF62
:1012380009F026EF09F0000E00016D6F010E6C6FCA
:101248002AEF09F042C06CF043C06DF040C06EF068
:1012580041C06FF044A833EF09F035EF09F03AEFD9
:1012680009F00001FE0E6E27FF0E6F2330C070F0EC
:1012780031C071F032C072F033C073F034C074F012
:1012880035C075F036C076F037C077F0000E000133
:10129800796F1F0E786F000EF16F07EF0AF078076D
:1012A800D8A079070F0E70157A6F7B6B7BBF66EF3E
:1012B80009F07B5109E10A0E7A5DD8A066EF09F0C2
:1012C80068EF09F070EF09F0570E7A257A6F000E73
:1012D8007B217B6F76EF09F0300E7A257A6F000E4E
:1012E8007B217B6FBF0E606FFF0E616F3850626F9E
:1012F800636B605162276151632363510AE11A0EDF
:10130800625DD8A08AEF09F08DEF09F0010E8EEF2B
:1013180009F0000E686F696B68516911D8B497EFCE
:1013280009F099EF09F0C9EF09F09F0E606FFF0E01
:10133800616F200E7A11626F000E7B11636F60512E
:1013480062276151632363510AE11A0E625DD8A0D6
:10135800B0EF09F0B3EF09F0010EB4EF09F0000E99
:101368006A6F6B6B6A516B11D8B4BDEF09F0BFEFB0
:1013780009F0C9EF09F07AC017F07BC018F024EC27
:1013880011F017C07AF018C07BF0D20E0001782552
:10139800D96E000E7921DA6E7AC0DFFF6C07D8A00B
:1013A8006D076E07D8A06F0770C060F071C061F05C
:1013B80072C062F073C063F074C064F075C065F009
:1013C80076C066F077C067F0050EF4EF09F0D890A4
:1013D8006733663365336433633362336133603351
:1013E800E82EEBEF09F060C070F061C071F062C0E8
:1013F80072F063C073F064C074F065C075F066C0C5
:1014080076F067C077F079BF13EF0AF0795109E1F8
:10141800020E785DD8A013EF0AF015EF0AF045EF39
:101428000AF07051711172117311741175117611DE
:101438007711D8A422EF0AF024EF0AF053EF09F04D
:101448006DBF31EF0AF06D5106E16C05D8B02FEF92
:101458000AF031EF0AF053EF09F06FBF3CEF0AF0E2
:101468006F5108E16E05D8A03CEF0AF03EEF0AF094
:1014780045EF0AF044B243EF0AF045EF0AF053EFA4
:1014880009F044A84AEF0AF04CEF0AF062EF0AF0BC
:101498007807D8A07907D20E7825D96E000E792161
:1014A800DA6E38C0DFFF7807D8A07907D20E782522
:1014B800D96E000E7921DA6E300EDF6E2EC023F061
:1014C8002FC024F0D20E7825256E000E7921266EC5
:1014D8006EC027F06FC028F0E0EC0EF023C02EF0AD
:1014E80024C02FF01200F10E0001A36FFF0EA46FAD
:1014F800FEEC12F0000E0001B66F000EB56FB5518C
:10150800B611D8B48AEF0AF08CEF0AF0A1EF0AF00E
:10151800070EB515AF6F000EB615B06FAF51B0110D
:10152800D8A499EF0AF09BEF0AF0A1EF0AF0880E11
:10153800A36FFF0EA46FFEEC12F00001B551B611B7
:10154800D8B4A9EF0AF0ABEF0AF004EF0BF00F0ED6
:10155800B515AF6F000EB615B06FAF51B011D8A466
:10156800B8EF0AF0BAEF0AF004EF0BF0870EA36F9A
:10157800FF0EA46FFEEC12F0F00E0001B525B16F5E
:10158800FF0EB621B26FF3EF0AF0B151AD25D96E57
:10159800B251AE21DA6E200EDF60D5EF0AF0D7EF38
:1015A8000AF0DFEF0AF0FB0EA36FFF0EA46FFEEC4C
:1015B80012F0F0EF0AF0F50EA36FFF0EA46FB15111
:1015C800AD25D96EB251AE21DA6EDF50AF6FAF5193
:1015D800A56FA66BFEEC12F00001B14BB22BB55112
:1015E800B15DB651B259D8A0FCEF0AF0FEEF0AF08F
:1015F800C9EF0AF0960EA36FFF0EA46FFEEC12F06F
:10160800DC0E0001A36FFF0EA46FB551AD25D96E96
:10161800B651AE21DA6EDF50AF6FAF51A56FA66B32
:10162800FEEC12F00001B54BB62B020EB65DD8A049
:1016380020EF0BF022EF0BF083EF0AF0860EA36F7A
:10164800FF0EA46FFEEC12F0F00E0001B525B36F8B
:10165800FF0EB621B46F5BEF0BF0B351AD25D96E19
:10166800B451AE21DA6E200EDF603DEF0BF03FEF94
:101678000BF047EF0BF0FB0EA36FFF0EA46FFEEC11
:1016880012F058EF0BF0F50EA36FFF0EA46FB351D5
:10169800AD25D96EB451AE21DA6EDF50AF6FAF51C0
:1016A800A56FA66BFEEC12F00001B34BB42BB5513D
:1016B800B35DB651B459D8A064EF0BF066EF0BF0E8
:1016C80031EF0BF0960EA36FFF0EA46FFEEC12F035
:1016D8001200000E266E000E256E000E1F6E000E04
:1016E8001E6E79EF0BF0184A192A010E246E18C0E5
:1016F800F6FF19C0F7FFF86A0800F550200AD8B4B9
:1017080088EF0BF08AEF0BF0A8EF0BF0F70E1A6ECC
:10171800FF0E1B6E18C0F6FF19C0F7FFF86A080025
:10172800F5501C6E1D6A1A501C261B501D221D5098
:1017380009E1050E1C5CD8A0A4EF0BF0A6EF0BF096
:10174800A8EF0BF0000E246E24C020F0216A205070
:101758002110D8A4B2EF0BF0B4EF0BF077EF0BF039
:10176800BEEF0BF0000E1F6E010E1E6E184A192AEE
:10177800F5EF0BF018C0F6FF19C0F7FFF86A08007C
:10178800F5501A6E1B6A1B50000AD8B4CEEF0BF046
:10179800F5EF0BF01A502B0AD8B4BAEF0BF0060A83
:1017A800D8B4B6EF0BF0F5EF0BF025C011F026C05A
:1017B80012F0000E146E0A0E136E26EC13F018C009
:1017C800F6FF19C0F7FFF86A0800F550115E000E21
:1017D800125A300E1124256E000E1220266EBAEF12
:1017E8000BF0D00E1A6EFF0E1B6E18C0F6FF19C054
:1017F800F7FFF86A0800F5501C6E1D6A1A501C267F
:101808001B501D221D500AE10A0E1C5CD8A00FEFC8
:101818000CF012EF0CF0010E13EF0CF0000E226E1C
:10182800236A22502310D8A41CEF0CF01EEF0CF0F2
:10183800D9EF0BF01E501F10D8A425EF0CF027EF9E
:101848000CF035EF0CF025C01AF026C01BF01A1E5C
:101858001B1E1A4A1B2A1AC018F01BC019F039EFB0
:101868000CF025C018F026C019F01200000E226EE8
:1018780020BE43EF0CF041EF0CF055EF0CF0201EAA
:101888001F1E1E1E1D1E1C1E1B1E1A1E196C000E5E
:101898001A221B221C221D221E221F222022010E78
:1018A800226E18BE5CEF0CF05AEF0CF06EEF0CF0E5
:1018B800181E171E161E151E141E131E121E116C3E
:1018C800000E122213221422152216221722182281
:1018D800010E221A20EE23F0070EDE6AE806FDE26A
:1018E80019501A101B101C101D101E101F1020104C
:1018F800D8B481EF0CF083EF0CF0D5EF0CF0010EAB
:10190800216E91EF0CF0D89019361A361B361C361A
:101918001D361E361F362036212A20AE96EF0CF0D3
:1019280098EF0CF087EF0CF0D89023362436253644
:1019380026362736283629362A361950115C1A5089
:1019480012581B5013581C5014581D5015581E502F
:1019580016581F50175820501858D8A0B6EF0CF03A
:10196800B8EF0CF0C9EF0CF01950115E1A50125A6A
:101978001B50135A1C50145A1D50155A1E50165AF3
:101988001F50175A2050185A2380D89020321F32DF
:101998001E321D321C321B321A321932212E98EF98
:1019A8000CF02250D8B4DBEF0CF0DDEF0CF0EDEFCB
:1019B8000CF02A1E291E281E271E261E251E241E40
:1019C800236C000E242225222622272228222922BF
:1019D8002A2223C011F024C012F025C013F026C01B
:1019E80014F027C015F028C016F029C017F02AC037
:1019F80018F012000001B26F0001B251E4EC0FF0D0
:101A08008A98FF0E65EC13F0480E65EC13F0000E93
:101A180065EC13F0000E65EC13F0010E65EC13F0A5
:101A2800AA0E65EC13F0870E65EC13F0FF0E65EC5B
:101A380013F0FF0E65EC13F00001B56F000EB46FE4
:101A4800000EB36FF80EA36FFF0EA46FFF0E65ECC8
:101A580013F00001B16FB151A56FA66BFEEC12F047
:101A68000001B34BB42BB4BF43EF0DF0B45109E1FF
:101A7800040EB35DD8A043EF0DF045EF0DF026EF4F
:101A88000DF0960EA36FFF0EA46FFEEC12F08A887D
:101A9800DD0E0001A36FFE0EA46FB5C0A5F0A66B06
:101AA800FEEC12F08A98FF0E65EC13F0770E65ECE9
:101AB80013F0000E65EC13F0000E65EC13F0000E49
:101AC80065EC13F0000E65EC13F0000E65EC13F0F6
:101AD800FF0E65EC13F0FF0E65EC13F00001B56F17
:101AE800B10EA36FFE0EA46FB5C0A5F0A66BFEECF9
:101AF80012F0690E65EC13F0400E65EC13F0000E61
:101B080065EC13F0000E65EC13F0000E65EC13F0B5
:101B1800000E65EC13F0FF0E65EC13F0FF0E65EC9C
:101B280013F00001B56F8A889A0EA36FFE0EA46F9A
:101B3800B5C0A5F0A66BFEEC12F00001B505D8B44F
:101B4800A8EF0DF0AAEF0DF056EF0DF0B551D8A49F
:101B5800B0EF0DF0B2EF0DF0BAEF0DF0270EA36F56
:101B6800FD0EA46FFEEC12F0C0EF0DF0AE0EA36FE9
:101B7800FD0EA46FFEEC12F01200000E226E18BECD
:101B8800CAEF0DF0C8EF0DF0DCEF0DF0181E171EB0
:101B9800161E151E141E131E121E116C000E122284
:101BA800132214221522162217221822010E226E41
:101BB80020BEE3EF0DF0E1EF0DF0F3EF0DF0201E86
:101BC8001F1E1E1E1D1E1C1E1B1E1A1E196C000E1B
:101BD8001A221B221C221D221E221F2220221950DB
:101BE8001A101B101C101D101E101F102010D8B426
:101BF80000EF0EF002EF0EF04AEF0EF0010E216E2C
:101C080010EF0EF0D89019361A361B361C361D36D2
:101C18001E361F362036212A20AE15EF0EF017EF9C
:101C28000EF006EF0EF01950115C1A5012581B50A6
:101C380013581C5014581D5015581E5016581F5034
:101C4800175820501858D8A02CEF0EF02EEF0EF091
:101C58003EEF0EF01950115E1A50125A1B50135ACB
:101C68001C50145A1D50155A1E50165A1F50175AF8
:101C78002050185AD89020321F321E321D321C3282
:101C88001B321A321932212E17EF0EF02250D8B417
:101C980050EF0EF052EF0EF062EF0EF0181E171E06
:101CA800161E151E141E131E121E116C000E122273
:101CB80013221422152216221722182211C011F0FD
:101CC80012C012F013C013F014C014F015C015F0B0
:101CD80016C016F017C017F018C018F012004C50B4
:101CE800D8B479EF0EF07BEF0EF0D2EF0EF091EF53
:101CF8000EF0F40E4624D96E020E4720DA6EC4CFD9
:101D0800DFFFA6EF0EF0F40E4624D96E000E472032
:101D1800DA6EC4CFDFFFA6EF0EF04E500B6E0C6AE2
:101D28000C50000AD8B49BEF0EF0A6EF0EF00B5043
:101D3800000AD8B487EF0EF0010AD8B47DEF0EF090
:101D4800A6EF0EF0464A472A020E47184610D8A4B6
:101D5800B0EF0EF0B2EF0EF0D2EF0EF04E04D8A4B2
:101D6800B8EF0EF0BAEF0EF0C1EF0EF0000E4E6EA7
:101D7800010E0001D16FCEEF0EF04E50D8A4C7EF80
:101D88000EF0C9EF0EF0CEEF0EF0010E4E6E010E02
:101D98000001D06F000E476E000E466E48EC13F03F
:101DA8000001F251015C096EF35102580A6EB9EC58
:101DB80013F0C282F294120044A0E5EF0EF0E7EFB0
:101DC8000EF0F1EF0EF025C01CF026C01DF023C068
:101DD8001EF024C01FF0A9EC11F028BEF6EF0EF09B
:101DE800F8EF0EF0FEEF0EF027C02CF028C02DF013
:101DF80002EF0FF0000E2D6E000E2C6E000E2B6EF3
:101E0800000E2A6E14EF0FF0000E146E200E136EE3
:101E180023C015F024C016F030EC10F02A4A2B2A03
:101E28002C502A5C2B50800A296E2D50800A295884
:101E3800D8A021EF0FF023EF0FF008EF0FF044B018
:101E480028EF0FF02AEF0FF034EF0FF025C01CF049
:101E580026C01DF023C01EF024C01FF0A9EC11F00D
:101E680025C011F026C012F098EC12F02C50112465
:101E7800236E2D501220246E1200126E6CBA47EF9A
:101E88000FF049EF0FF096EF0FF01250040D010E0E
:101E9800F326000EF422070EF324F66EFA0EF42051
:101EA800F76EF86A000EF8220800F5CF6DFF1250A1
:101EB800040D070EF324F66EFA0EF420F76EF86A96
:101EC800000EF8220800F5CF6CFF000E6B6E125062
:101ED800040D020EF326000EF422070EF324F66E0C
:101EE800FA0EF420F76EF86A000EF8220800F5CF13
:101EF8006EFF1250040D030EF326000EF422070E97
:101F0800F324F66EFA0EF420F76EF86A000EF82243
:101F18000800F5CF11F0114693501118FD0B111858
:101F2800936E6C8A12008A98FF0E65EC13F0510EBE
:101F380065EC13F0155065EC13F0145065EC13F0D4
:101F4800135065EC13F0125065EC13F0FF0E65ECBE
:101F580013F0FF0E65EC13F0FF0AD8B4B6EF0FF0DC
:101F6800B8EF0FF0ADEF0FF0FF0E65EC13F0FF0ABE
:101F7800D8B4C1EF0FF0C3EF0FF0B8EF0FF0000EB9
:101F8800196E000E186E18501624D96E19501720A5
:101F9800DA6EFF0E65EC13F0DF6E184A192A020E8E
:101FA800195CD8A0DAEF0FF0DCEF0FF0C7EF0FF0F5
:101FB800FF0E65EC13F0FF0E65EC13F08A88120033
:101FC8000001AD6F000E0001B06F000EAF6FFF0E85
:101FD80065EC13F00001AF4BB02BB0BFFDEF0FF075
:101FE800B05109E10A0EAF5DD8A0FDEF0FF0FFEF89
:101FF8000FF0EBEF0FF08A98FF0E65EC13F0400E30
:1020080065EC13F0000E65EC13F0000E65EC13F0B0
:10201800000E65EC13F0000E65EC13F0950E65EC00
:1020280013F0FF0E65EC13F0FF0E65EC13F00001E2
:10203800AE6F8A88AD05D8A424EF10F026EF10F013
:102048002FEF10F0040EA36FFE0EA46FAEC0A5F024
:10205800A66BFEEC12F0120015501610D8B437EF2C
:1020680010F039EF10F042EF10F015501610D8A408
:1020780040EF10F042EF10F047EF10F01350B4ECBF
:1020880013F07AEF10F020EE04F01550D926165010
:10209800DA22DE50DE10D8B454EF10F056EF10F00C
:1020A80071EF10F020EE04F01550D9261650DA2200
:1020B80010EE02F01550E1261650E222DE50E65CE2
:1020C800E650800A1B6EDE50800A1B58D8B06FEFAE
:1020D80010F071EF10F07AEF10F020EE02F01550CA
:1020E800D9261650DA22DE2A000EDD2212008A983E
:1020F800FF0E65EC13F0580E65EC13F0155065EC07
:1021080013F0145065EC13F0135065EC13F01250F3
:1021180065EC13F0FF0E65EC13F0FF0E65EC13F0A1
:10212800FF0AD8B49AEF10F09CEF10F091EF10F07E
:10213800FF0E65EC13F0FF0E65EC13F0FF0E65EC77
:1021480013F0FE0E65EC13F0000E196E000E186EFB
:1021580018501624D96E19501720DA6EDF5065EC26
:1021680013F0184A192A020E195CD8A0BEEF10F015
:10217800C0EF10F0ACEF10F08A8812009DC0A1F0FB
:102188009EC0A2F0000E0001C76F000EC66FE0EF00
:1021980010F09BC07CF09CC07DF0A10E7E6F000EFD
:1021A8007F6F9FC080F0A0C081F02BEC05F000018C
:1021B8007C51C6277D51C723A1C0F6FFA2C0F7FFF7
:1021C800F86A0800F5500009D8A4EDEF10F0EFEF19
:1021D80010F0CDEF10F0C6C09BF0C7C09CF0120005
:1021E800840EF66E270EF76E000EF86E0900F5CF16
:1021F800F2F00900F5CFF3F0880EF66E270EF76EB1
:10220800000EF86E0900F5CF4EF000EEF4F014EE73
:1022180000F0EE6AE550E150FCE1E250FAE100EE30
:10222800C6F02C0EEE6AE806FDE100EE40F00E0E58
:10223800EE6AE806FDE14F904F92000129EF00F0A9
:102248009F0E196EFF0E1A6E17C01BF018C01CF0F7
:1022580019501B261A501C221C500AE11A0E1B5C2E
:10226800D8A039EF11F03CEF11F0010E3DEF11F05D
:10227800000E1D6E1E6A1D501E10D8B446EF11F0D8
:1022880048EF11F04EEF11F05F0E1714176E186A31
:1022980052EF11F017C017F018C018F01200405094
:1022A8004110D8A45AEF11F05CEF11F062EF11F071
:1022B80040C031F041C032F068EF11F0FF0E402409
:1022C800316EFF0E4120326E30C0D2F0000E000198
:1022D800D36F2EC023F02FC024F0D20E256E000E2F
:1022E800266E31C027F032C028F0E0EC0EF023C093
:1022F8002EF024C02FF01200010E176E200E1118B8
:102308001210D8B48AEF11F08CEF11F0A5EF11F08C
:10231800F70E136EFF0E146E11C015F012C016F0F2
:102328001350152614501622165009E1050E155C97
:10233800D8A0A1EF11F0A3EF11F0A5EF11F0000E56
:10234800176E17C011F0126A1200000E226E000EEE
:10235800216EBAEF11F020C013F0146A1EC015F0F8
:102368001FC016F030EC10F0214A222A21501C24FC
:10237800D96E22501D20DA6EDF50206E2050D8A46E
:10238800C8EF11F0CAEF11F0AFEF11F0120024BE40
:10239800D8EF11F0245006E12304D8B0D6EF11F09D
:1023A800D8EF11F0E6EF11F023C025F024C026F095
:1023B800251E261E254A262A25C023F026C024F0DD
:1023C800EAEF11F023C023F024C024F01200080E15
:1023D800B86E900EAB6E240EAC6E820EAF6E060E0B
:1023E800B06E000E116E000E126EAAEC13F0000E05
:1023F800116E000E126EA5EC13F0000E116E000E99
:10240800126EAFEC13F0000E4D6E12009F0E136E9D
:10241800FF0E146E200E1110156E000E1210166E9F
:10242800135015261450162216500AE11A0E155C80
:10243800D8A021EF12F024EF12F0010E25EF12F0D0
:10244800000E116E126A12008A980D0E65EC13F0D8
:10245800126E8A881228D8A434EF12F036EF12F0E0
:1024680039EF12F0FF0E43EF12F0FF0E65EC13F098
:10247800FF0E65EC13F0FF0E65EC13F0125012001E
:102488009F0E136EFF0E146E11C015F012C016F0D9
:10249800135015261450162216500AE11A0E155C10
:1024A800D8A059EF12F05CEF12F0010E5DEF12F0B8
:1024B800000E116E126A1200BF0E136EFF0E146E1C
:1024C80011C015F012C016F013501526145016221C
:1024D80016500AE11A0E155CD8A075EF12F078EFC5
:1024E80012F0010E79EF12F0000E116E126A12004E
:1024F800D00E136EFF0E146E11C015F012C016F038
:10250800135015261450162216500AE10A0E155CAF
:10251800D8A091EF12F094EF12F0010E95EF12F09F
:10252800000E116E126A120011C013F012C014F0DE
:10253800A0EF12F0114A122A11C0D9FF12C0DAFF17
:10254800DF50D8A4AAEF12F0ACEF12F09EEF12F011
:102558001350115C116E14501258126E1200F2943E
:102568004950D76E48C0D6FF4A504B10D8B4BFEF79
:1025780012F0C1EF12F0CDEF12F002D8CDEF12F049
:102588000500FA6E4A50FD6E4B50FE6EFF6AFA5017
:1025980012001200D59CD768FD0ED66ED650D7CF44
:1025A80013F0146A13C014F0136A1310486E145011
:1025B800496EF294F28A860E116E270E126EA0EC06
:1025C80013F09F0ED56E1200000E896E000E8A6EF3
:1025D800000E8B6E9268E50E936EBC0E946E3C0EE8
:1025E8000F013A6F310E396F2F0E386F000E616E82
:1025F800F18E1200A50E0001AB6F000EAC6F000E3D
:102608009B6F000E9C6FA3C09DF0A4C09EF0AB0E04
:102618009F6F000EA06FC2EC10F012009EAA17EF79
:1026280013F019EF13F012EF13F0000E4D6EABA27A
:1026380020EF13F022EF13F024EF13F0AB98AB88E0
:10264800AE50120011501302F3CF15F0F4CF16F06C
:1026580011501402F350162612501302F350162686
:1026680015C011F016C012F01200BEEC13F092EC77
:1026780013F0E8EC12F057EC13F0CEEC12F072EC19
:1026880013F0EBEC11F01200D6CF07F0D7CF08F01B
:102698000850036E0750056E03C006F005C001F030
:1026A80006C002F01200700ED36E040ED26E400EF9
:1026B8009B6ED2AE62EF13F064EF13F05DEF13F090
:1026C8001200116E11C06FFFA4AE6DEF13F06FEF23
:1026D80013F068EF13F0A49E6F501200110EC26E33
:1026E800000EC16E260EC06E000EC36E000EC46EC4
:1026F8001200116E9EA883EF13F085EF13F07EEFA2
:1027080013F011C0ADFF12009EBA8DEF13F090EFD9
:1027180013F0010E91EF13F0000E1200400E6D6ED3
:10272800010E6C6E010E6E6E93926C9A120012502E
:10273800D76E11C0D6FF120011C04AF012C04BF07C
:10274800120011C0CCF012C0CDF0120011C0CEF0B2
:1027580012C0CFF0120011C0CAF012C0CBF01200A4
:10276800126E12507DEC13F012000A50D76E09C099
:10277800D6FF1200D09E12006C9A1200400612007A
:01278800014F
:10F9EC000080BBD5E9F8FFFFF8E9D5BB9F806145E6
:10F9FC002B1708010108172B45610001400100502D
:10FA0C007265737320616E79206B657920746F2039
:10FA1C007374617274207265636F7264696E6720AF
:10FA2C00617564696F20616E6420707265737320F8
:10FA3C00616E79206B657920746F2073746F702000
:10FA4C007265636F7264696E672E0D0A004C6F6786
:10FA5C002066696C65206E616D653A2042726F7725
:10FA6C00736520616E642070726F766964652061C5
:10FA7C00202E63737620657874656E73696F6E20C3
:10FA8C00746F20796F75722066696C65206E616D7C
:10FA9C00650D0A00546F2073706F6F6C2074657263
:10FAAC006D696E616C20636F6E74656E7473206922
:10FABC006E746F20612066696C6520666F6C6C6F6C
:10FACC007720746865736520696E737472756374DE
:10FADC00696F6E733A0D0A005269676874206D6F16
:10FAEC0075736520636C69636B206F6E2074686539
:10FAFC00207570706572206C656674206F6620745A
:10FB0C0068652050755454592077696E646F770D71
:10FB1C000A00596F75206D6179207465726D696E7C
:10FB2C006174652073706F6F6C696E6720617420EF
:10FB3C00616E7974696D6520776974682061206BDA
:10FB4C00657970726573732E0D0A00313A207772E5
:10FB5C006974652061207065726665637420323645
:10FB6C002076616C75652073696E652077617665AA
:10FB7C0020746F2074686520534420636172640D97
:10FB8C000A000D0A2D2D2D2D2D2D2D2D2D2D2D2D2C
:10FB9C002D2D2D2D2D2D2D2D2D2D2D2D2D2D2D2D89
:10FBAC002D2D2D2D2D2D2D2D2D2D2D2D2D2D2D2D79
:10FBBC002D2D2D2D2D0D0A002B2F2D3A20496E6346
:10FBCC0072656173652F446563726561736520743A
:10FBDC0068652073616D706C65207261746520625C
:10FBEC00792031302075730D0A0053656C65637490
:10FBFC003A202020202053657373696F6E206C6F40
:10FC0C006767696E673A20416C6C20736573736922
:10FC1C006F6E206F75747075740D0A00546F2063CD
:10FC2C006C6F7365207468652066696C6520666FFF
:10FC3C006C6C6F7720746865736520696E73747271
:10FC4C00756374696F6E733A0D0A0054686572655A
:10FC5C00207765726520256420626C6F636B73205E
:10FC6C007772697474656E20746F207468652053A4
:10FC7C0044206361726400723A2072656164206191
:10FC8C0020626C6F636B206F662025642062797430
:10FC9C0065732066726F6D20534420636172640D2E
:10FCAC000A004D616B6520737572652053442063A7
:10FCBC006172642069732070726F7065726C792048
:10FCCC00696E7365727465642E0D0A00573A20577D
:10FCDC0072697465206D6963726F70686F6E6520F0
:10FCEC003D3E20534420636172642061742025647E
:10FCFC002075730D0A00612F412064656372656184
:10FD0C0073652F696E6372656173652072656164DA
:10FD1C0020616464726573730D0A005375636365C7
:10FD2C00737366756C6C7920496E697469616C6962
:10FD3C007A656420534420436172640D0A00537049
:10FD4C006F6F6C6564202564206F7574206F66205E
:10FD5C0074686520256420626C6F636B732E0D0ACA
:10FD6C000053656C6563743A202020202043686141
:10FD7C006E67652073657474696E67732E2E2E0D15
:10FD8C000A00733A2073706F6F6C206D656D6F7223
:10FD9C007920746F2061206373762066696C650D21
:10FDAC000A004572726F7220496E697469616C69E0
:10FDBC007A696E6720534420436172640D0A0050C7
:10FDCC007265737320616E79206B657920746F2076
:10FDDC00636F6E74696E75652E0D0A00426C6F63ED
:10FDEC006B204C656E67746820526573706F6E7310
:10FDFC00653A2025780D0A00434D44302C2052657D
:10FE0C0073657420526573706F6E73653A20257834
:10FE1C000D0A00434D44312C20496E697420526503
:10FE2C0073706F6E73653A2025780D0A00507265F9
:10FE3C00737320616E79206B657920746F207374F5
:10FE4C006172740D0A00693A20496E697469616CBB
:10FE5C00697A6520534420636172640D0A0053650E
:10FE6C007373696F6E206C6F6767696E673A204EAB
:10FE7C006F6E650D0A007A3A20436C6561722074CE
:10FE8C006865207465726D696E616C0D0A00414382
:10FE9C004D4420343120526573706F6E73653A2077
:10FEAC0025780D0A00434D4420353520526573707A
:10FEBC006F6E73653A2025780D0A0053656C656387
:10FECC00743A20202020204C6F6767696E670D0AFA
:10FEDC0000434D44203820526573706F6E73653A41
:10FEEC002025780D0A005A3A2052657365742070EB
:10FEFC00726F636573736F720D0A00446576656C7F
:10FF0C006F706D656E7420426F6172640D0A0069CA
:10FF1C006E4C6162203039207465726D696E616C53
:10FF2C000D0A0053656C6563743A20202020204133
:10FF3C0070706C790D0A0053442063617264206107
:10FF4C006464726573733A202000534420636172B9
:10FF5C00642074657374696E670D0A00556E6B6E60
:10FF6C006F776E206B65792025630D0A00202020A9
:10FF7C0020416464726573733A202020200052651E
:10FF8C00616420626C6F636B3A200D0A00577269D2
:10FF9C00746520626C6F636B3A0D0A003F3A2068FF
:10FFAC00656C70206D656E750D0A00446563726535
:10FFBC00617365642000496E6372656173656420CA
:10FFCC00006F3A096F6B0D0A006F3A206B0D0A0037
:10FFDC0025303278200025640D0A000D0A3E2000E1
:10FFEC0025303478000D0A0A002563002578002E90
:04FFFC00003A0000C7
:020000040020DA
:08000000FFFFFFFFFFFFFFFF00
:020000040030CA
:0E000000FF281F3CFFBF85FF0FC00FE00F4021
:00000001FF
